:020000040800F2
:10000000880E002021610008296100082B6100088A
:100010002D6100082F610008316100080000000018
:100020000000000000000000000000003361000834
:1000300035610008000000003761000839610008E0
:100040003B6100083B6100083B6100083B61000820
:100050003B6100083B6100083B6100083B61000810
:100060003B6100083B6100083B6100083B61000800
:100070003B6100083B6100083B6100083B610008F0
:100080003B6100083B6100083B6100083B610008E0
:10009000DD0300083B6100083B6100083B6100088C
:1000A0003B6100083B6100083B6100083B610008C0
:1000B000E10200083B6100083B6100083B61000869
:1000C0003B6100083B6100083B6100083B610008A0
:1000D0003B6100083B610008BF0300083B6100086A
:1000E0003B6100083B6100083B6100080000000024
:1000F0000000000000000000000000000000000000
:1001000000000000000000003B6100083B610008A7
:100110003B6100083B6100083B6100083B6100084F
:100120003B6100083B6100083B6100083B6100083F
:100130003B6100083B6100083B6100083B6100082F
:100140003B610008610400083B6100083B61000856
:1001500000F002F800F05FF80AA090E8000C82447A
:100160008344AAF10107DA4501D100F054F8AFF257
:10017000090EBAE80F0013F0010F18BFFB1A43F085
:1001800001031847BC710000DC7100000A444FF005
:10019000000C10F8013B13F0070408BF10F8014BE6
:1001A0001D1108BF10F8015B641E05D010F8016B2B
:1001B000641E01F8016BF9D113F0080F1EBF10F88F
:1001C000014BAD1C0C1B09D16D1E58BF01F801CBB2
:1001D000FAD505E014F8016B01F8016B6D1EF9D535
:1001E0009142D6D37047000000230024002500264A
:1001F000103A28BF78C1FBD8520728BF30C148BF8A
:100200000B607047642905F0F387002070471FB525
:100210001FBD10B510BD06F0E6F81146FFF7F7FF59
:1002200000F008F806F004F903B4FFF7F2FF03BC8E
:1002300006F00CF901F006F83EE02048007858B1CD
:1002400000201E49087002F0D5F801F048FE1C4855
:10025000007808B101F07AFC1A48007828B3002031
:100260001849087001F02DFA1748007808B101F01C
:100270006DFC16480078012818D11548008801281F
:1002800014D014484178007801EB0020124908602E
:100290001048C178807801EB0020104908600846BA
:1002A00001680D48006801F031F805E00748007862
:1002B000022801D101F074F9BFE700000C00002012
:1002C000000000200E000020010000204800002057
:1002D0002200002028020020080200200C0200203A
:1002E00010B50121880705F0A0FC002866D09C48C5
:1002F0000068401C9A490860084600680A21B0FB63
:10030000F1F201FB1200092802D101209549087081
:10031000934800683221B0FBF1F201FB1200312852
:1003200002D10120904908708D480068FA21B0FB85
:10033000F1F201FB1200F92802D101208B4908706B
:10034000874800686421B0FBF1F201FB12006328CA
:1003500012D101208649087000F0A6FF8548006888
:10036000401C84490860084600688349B0FBF1F2EC
:1003700001FB12007F490860794800684FF4FA7168
:10038000B0FBF1F201FB1200491E884204D10120AA
:100390007A49087001F013FB7148006841F2883116
:1003A000B0FBF1F201FB1200491E884202D101208C
:1003B000734908700121880705F048FC10BD10B58D
:1003C00040F225516F4803F0FBFF30B16D4803F058
:1003D00077FFC4B2204600F033FA10BD00B585B0F7
:1003E0000421694804F03AFC012804D1042166483C
:1003F00004F0CFFC32E00821634804F02FFC012810
:1004000004D10821604804F0C4FC27E06A460021BA
:100410005D4804F0A0FA5D49019888421ED1012090
:100420005B49087000205B4908709DF80B005A4931
:1004300008709DF80C0048709DF80D0088709DF8BC
:100440000E00C8709DF80F0008719DF810004871EB
:100450009DF8110088719DF81200C87105B000BDAB
:1004600000B585B020214D4804F0F8FB012804D1E7
:1004700020214A4804F08DFC6FE04021474804F0F9
:10048000EDFB012804D14021444804F082FC64E0E3
:100490006A460121414804F05EFA414901988842C8
:1004A0001BD100203F4908709DF80B003E490870A1
:1004B0009DF80C0048709DF80D0088709DF80E00A6
:1004C000C8709DF80F0008719DF8100048719DF8E4
:1004D000110088719DF81200C87134490198884252
:1004E0001BD100202F4908709DF80B00304908707F
:1004F0009DF80C0048709DF80D0088709DF80E0066
:10050000C8709DF80F0008719DF8100048719DF8A3
:10051000110088719DF81200C8712649019888421F
:100520001BD100201F4908709DF80B00224908705C
:100530009DF80C0048709DF80D0088709DF80E0025
:10054000C8709DF80F0008719DF8100048719DF863
:10055000110088719DF81200C87105B000BD00003F
:10056000040000200C0000200D0000200F000020DF
:100570000E00002008000020C02709001000002005
:10058000110000200044004000640040F5E406181B
:10059000120000204B0200202802002000680040CA
:1005A000E551FF184A02002010020020E550FF1814
:1005B00020020020E552FF181802002000B587B085
:1005C0000121052003F029FB0121480403F032FB3F
:1005D0000420ADF8180018208DF81B0003208DF8BA
:1005E0001A0006A9FE4803F0DDFB0820ADF818004C
:1005F00004208DF81B0003208DF81A0006A9F84886
:1006000003F0D0FBF74803F01BFD4FF4E1300290FC
:100610000020ADF80C00ADF80E00ADF81000ADF8FC
:1006200014000C20ADF8120002A9EE4803F04BFDB7
:10063000012240F22551EB4803F0DDFD0121E9489C
:1006400003F0CDFD26208DF8040000208DF8050074
:100650008DF8060001208DF8070001A803F059F875
:1006600007B000BD00B587B00121112003F0D5FA15
:100670000121880403F0DEFA4FF48060ADF8180021
:1006800018208DF81B0003208DF81A0006A9D64803
:1006900003F088FB4FF40060ADF8180004208DF8DB
:1006A0001B0003208DF81A0006A9CF4803F07AFB3F
:1006B000CE4803F0C5FC4FF4165002900020ADF870
:1006C0000C00ADF80E00ADF81000ADF814000C20D1
:1006D000ADF8120002A9C54803F0F5FC012240F272
:1006E0002551C24803F087FD0121C04803F077FD82
:1006F0004021BE4803F05BFE4FF4A06003F004F815
:1007000027208DF8040002208DF8050001208DF8C7
:1007100006008DF8070001A802F0FBFF07B000BD3E
:1007200000B587B00121312003F077FA01210805D7
:1007300003F080FA4FF48050ADF8180018208DF8BF
:100740001B0003208DF81A0006A9A74803F02AFB16
:100750000420ADF818008DF81B0003208DF81A0056
:1007600006A9A34803F01EFBA24803F069FC4FF45E
:10077000E13002900020ADF80C00ADF80E00ADF8AD
:100780001000ADF814000C20ADF8120002A9994831
:1007900003F099FC012240F22551964803F02BFD0D
:1007A0000121944803F01BFD4021924803F0FFFD16
:1007B0004FF4A06002F0A8FF35208DF8040002205D
:1007C0008DF8050003208DF8060001208DF8070044
:1007D00001A802F09EFF07B000BD2DE9F0410746D9
:1007E0000D46164600240CE0295D384603F064FDF2
:1007F00000BF4021384603F0CDFD0028F9D0601C31
:1008000084B2B442F0DBBDE8F0812DE9F041064648
:100810000C46204605F028FDC7B200250CE0615DBE
:10082000304603F049FD00BF4021304603F0B2FDE1
:100830000028F9D0681CC5B2BD42F0DBBDE8F081EC
:100840006D49097806290BD2DFE801F0030B13206C
:10085000293C5A2804D1694908700121664A11705F
:100860005FE1A52804D1654948700221624A1170F0
:1008700057E1624988708978042903DC05215E4AC2
:10088000117002E003215C4A11704AE15B49C870B3
:100890000421594A11700121594A117041E1574A06
:1008A00057490978C91C505455490978491C544A7C
:1008B0001170524989781278914202DC05214E4A22
:1008C00011702EE14D4909794E4A11604B49497921
:1008D000126801EB02214B4A116011460968142984
:1008E0000DD10121484A11704449C979474A118004
:1008F0004249097A127801EB0221444A11804149A8
:10090000096841F2101291420DD10121404A117043
:100910003A49C9793F4A11803849097A127801EB7E
:1009200002213C4A11803749096841F2F0029142A4
:100930000AD13249C979384A11803049097A127886
:1009400001EB0221344A11802E490968B1F5885F14
:100950000AD12A49C979314A11802849097A12787D
:1009600001EB02212D4A118026490968B1F5895F02
:100970000AD12249C9792A4A11802049097A127874
:1009800001EB0221264A11801E49096841F29012AA
:1009900091420AD11949C979224A11801749097A25
:1009A000127801EB02211F4A118016490968B1F53E
:1009B0008D5F0AD11149C9791B4A11800F49097A03
:1009C000127801EB0221184A11800E49096810299A
:1009D00040D10A49C979154A11700849097A27E0B6
:1009E0000008014000440040001001400048004061
:1009F00000140140005000401C000020C4050020ED
:100A00001D00002028000020200000201E000020E3
:100A100024000020220000202C0000202E000020B6
:100A2000300000203200002034000020360000207A
:100A30007E4A11707E49497A7E4A11707C49C97A92
:100A40007D4A11707A49097B7C4A11707849497B4B
:100A50007B4A11707B49096841F2301291420AD1F8
:100A60007349C979784A11807149097A127801EB82
:100A70000221754A118073490968B1F58A5F0AD16C
:100A80006B49C979714A11806949097A127801EB79
:100A900002216E4A11806B49096841F2501291425D
:100AA0000AD16349C9796A4A11806149097A127881
:100AB00001EB0221664A118062490968B1F58B5F3A
:100AC0000AD15B49C979634A11805949097A127878
:100AD00001EB02215F4A11805A49096841F2701204
:100AE00091420AD15249C9795B4A11805049097A29
:100AF000127801EB0221584A118052490968B1F578
:100B00008C5F0AD14A49C979544A11804849097A07
:100B1000127801EB0221514A11800021504A1170D4
:100B200000BF00BF704701460022FF290ED14D488B
:100B30000078401C4B4B187018460078032808DBDF
:100B40000020494B1870474B187002E00020454BBD
:100B5000187045480078062865D2DFE800F0030EDB
:100B6000142B485DAA2907D1404801700020404B52
:100B7000187001203C4B187055E03C484170022031
:100B8000394B18704FE0394881708078384B1B78AA
:100B90001844374B187035488078022803DC04204D
:100BA000314B187005E003202F4B18700020314B9B
:100BB000187038E02D4B2F480078C01C19542D4870
:100BC0000078C01C185C2A4B1B781844284B1870FE
:100BD00028480078401C274B187024488078801ED5
:100BE0001B78984202DC04201F4B18701BE01F4B3F
:100BF00020480078C01C19541E480078C01C185C9E
:100C00001B4B1B78984203D10520174B187002E04C
:100C10000020154B187006E0552900D10122002054
:100C2000114B187000BF00BFD0B2704737000020D2
:100C3000C405002038000020390000203A000020C0
:100C40003B000020280000203C0000203E00002047
:100C50004000002042000020440000204600002008
:100C60001C0000201900002018000020A006002011
:100C70001B0000201A000020F0B589B007460C4682
:100C800015461E460121052002F0C7FF0121480636
:100C900002F0D0FF4FF40060ADF8200048208DF83E
:100CA000230003208DF8220008A99A4803F07AF85F
:100CB0004FF48050ADF8200018208DF82300032059
:100CC0008DF8220008A9934803F06CF8924803F0CD
:100CD000BBFB05A803F0DCFC00208DF81A008DF8A2
:100CE0001B008DF81C008DF81D008DF81E008DF87E
:100CF0001F008DF816008DF817708DF818408DF8CC
:100D00001950ADF8146005A9834803F0B6FB002024
:100D10008DF80E008DF80F0001208DF810000020D6
:100D2000ADF80400ADF80600ADF80800ADF80A0013
:100D3000ADF80C0001208DF8110001A803F027FC8C
:100D400001220221744803F021FF14208DF80000D5
:100D500001208DF801008DF802008DF8030068462F
:100D600002F0D7FC09B0F0BDF0B589B007460C46DB
:100D700015461E460121092002F04FFF0121880679
:100D800002F058FF4FF48050ADF8200048208DF855
:100D9000230003208DF8220008A9604803F002F820
:100DA0004FF40050ADF8200018208DF823000320E8
:100DB0008DF8220008A9594802F0F4FF584803F0C2
:100DC00043FB05A803F064FC00208DF81A008DF8A1
:100DD0001B008DF81C008DF81D008DF81E008DF88D
:100DE0001F008DF816008DF817708DF818408DF8DB
:100DF0001950ADF8146005A9494803F03EFB0E20D8
:100E00008DF80E0000208DF80F0001208DF81000E5
:100E10000020ADF80400ADF80600ADF80800ADF80C
:100E20000A000120ADF80C008DF8110001A803F0B4
:100E3000AEFB012210213A4803F0A8FE41208DF8B4
:100E4000000002208DF8010000208DF80200012032
:100E50008DF80300684602F05CFC09B0F0BDF0B507
:100E600085B00646002400272E48019004208DF806
:100E7000080000208DF8090008208DF80A0000BF46
:100E800005E0315D0DF10B000155601C84B2082CAA
:100E9000F7DB00BF6946224803F068FC0546781C72
:100EA000C7B2042D01D1FE2FF4DB002705B0F0BD41
:100EB0002DE9F04385B006460F4690460024A14632
:100EC000CDF8048004208DF8080000208DF809007A
:100ED00008208DF80A0000BF05E0315D0DF10B0020
:100EE0000155601C84B2BC42F7DB00BF69460A486A
:100EF00003F03CFC054609F1010000F0FF09042D58
:100F000002D1B9F1FE0FF1DB4FF0000905B0BDE8E9
:100F1000F08300000008014000640040000C014024
:100F200000680040F4E5061870B50546002405E0A9
:100F3000601CC4B2C82C01DD002070BD0221E54850
:100F400005F018F80028F3D02946E24804F0BFFF66
:100F5000002405E0601CC4B2C82C01DD0020ECE7D1
:100F60000121DC4805F006F80028F3D0D94804F048
:100F7000B0FFC0B2E1E700B585B00121C80302F0BF
:100F800059FE0020ADF800004FF48270ADF8020069
:100F90000020ADF804000220ADF806000120ADF8F5
:100FA00008004002ADF80A003820ADF80C0000201F
:100FB000ADF80E000720ADF810006946C54804F0F2
:100FC0008FFE0121C34804F051FFFF20FFF7ACFF63
:100FD0004021C14802F093FF05B000BD10B545F2B5
:100FE000555004F037FE062004F037FE4FF496709B
:100FF00004F036FE04F037FE04F03AFE10BD08B5EA
:101000000121084602F009FE01213C2002F005FE04
:101010000121B24802F097FF4FF48070ADF8000054
:1010200010208DF8030001208DF802006946AA48BF
:1010300002F0B8FE4FF40070ADF8000014208DF8F7
:10104000030001208DF802006946A34802F0AAFEC1
:101050001020ADF800008DF8030001208DF802008B
:1010600069469F4802F09EFE2020ADF80000102047
:101070008DF8030001208DF802006946984802F0BF
:1010800091FE4020ADF8000010208DF803000120F3
:101090008DF802006946924802F084FE8020ADF887
:1010A000000010208DF8030001208DF80200694631
:1010B0008B4802F077FE1020ADF800008DF8030099
:1010C00001208DF802006946864802F06BFE4FF45D
:1010D0000060ADF8000010208DF8030001208DF8AD
:1010E00002006946804802F05DFE4FF48050ADF882
:1010F000000010208DF8030001208DF802006946E1
:10110000794802F04FFE4FF48060ADF800001020E7
:101110008DF8030003208DF8020069466E4802F046
:1011200041FE4FF40060ADF8000014208DF803007C
:1011300001208DF802006946674802F033FE042062
:10114000ADF8000010208DF8030001208DF802009A
:101150006946614802F026FE4020ADF800001020EC
:101160008DF8030001208DF8020069465A4802F00C
:1011700019FE2020ADF8000018208DF80300032090
:101180008DF802006946544802F00CFE1020ADF8BC
:10119000000004208DF8030001208DF8020069464C
:1011A0004D4802F0FFFD0820ADF8000018208DF832
:1011B000030003208DF802006946474802F0F2FD63
:1011C00008BD1FB50121084602F034FD48F6A040D5
:1011D000ADF808000120ADF804000020ADF80A00C9
:1011E000ADF806008DF80C000121880704F01AFD07
:1011F00001221146900704F06AFA01A94FF08040DD
:1012000003F0EEFE0121880704F046FB0121880768
:1012100004F042FA4FF4A06002F076FA1C208DF838
:10122000000001208DF8010000208DF8020001204F
:101230008DF80300684602F06CFA1FBD10B504F08B
:1012400045FF10BD10B5FFF7F9FFFFF7BAFFFFF735
:10125000B5F90923072206210020FFF70DFD092318
:10126000072206210020FFF77FFDFFF7C8FEFFF7EA
:10127000B5FEFFF780FE01F0D3FF01201B49087087
:101280001B490870F0201B4908701B490870FC209E
:101290001A490870F0201A490870C02019490870CE
:1012A000FC201949087010BD10B504F0DCFC10BD1D
:1012B00010B50446074800884FF6C7710840054935
:1012C000088008460088204308800121014804F076
:1012D000CDFD10BD003C0040000C0140000230007C
:1012E00000080140001001400014014048000020A7
:1012F000880200202E0300202F030020300300204E
:101300003103002032030020330300202DE9F04197
:1013100004460D460026FC48FC490860FC48FD498F
:101320000860FD48FD490860FD48FE490860FE4828
:101330000460FE480560FE480460FE480560FA4807
:10134000006840F24C41884202D90846F6490860DC
:10135000F5480068B0F5FA7F03D24FF4FA70F2490D
:101360000860F248006840F24C41884202D90846C1
:10137000EE490860ED480068322802D23220EB497D
:101380000860EA48006805F01FFE8046EA480168E8
:10139000404605F061FE074605F0F6FDE3490860AA
:1013A000E148006805F010FE0646D848016830465E
:1013B00005F052FE0746D7480168384605F0B4FCF0
:1013C0000646304605F0E0FDD7490860D74800687A
:1013D00005F0FAFD0646D1480168304605F03CFEAE
:1013E0000746D0480168384605F09EFC0646304660
:1013F00005F0CAFDCD490860CB480088000ACF49F6
:101400000870C94800784870C8480088000A887089
:10141000C6480078C870CA480088012813D1C94856
:10142000006840F6E771084030B90020C3490871F0
:101430000120C549087029E00120C0490871002039
:10144000C149087022E0BF480088C0F30B00B8B95A
:10145000BE480068B0F5D27F12D9BD48007878B197
:101460004FF48061BB4802F030FD48B9BA480079BA
:1014700030B90020B14908710120B349087005E076
:101480000120AE4908710020AF490870AB48FFF752
:10149000E6FCBDE8F0812DE9F04704460D4616460E
:1014A0001F46DDF820804FF0000964B95DB956B9D8
:1014B0004FB9B8F1000F06D1A8484078401CA749A1
:1014C0004870BDE8F0871CB117B14FF0020905E084
:1014D0001DB116B14FF0010900E0F2E7B9F1020FBA
:1014E0001FD104F128009E4908609E480760974874
:1014F0000068A04205D39C480078401C9A490870B7
:1015000002E0002098490870974800780A282EDBEE
:1015100092484078401C91494870002092490870D8
:1015200025E0B9F1010F22D18D4806608F4800688F
:10153000A84205D88C480078401C8B49087002E00E
:10154000002089490870884800780A280FDB834802
:101550004078072808D081484078401C7F4948706F
:1015600000208149087002E008207C4948708048CA
:10157000006840450CD979484078072805D077485D
:101580004078401C7549487002E008207349487053
:101590007448016872480068FFF7B8FE00BF90E722
:1015A00038B56E484078082870D06C4840780928D3
:1015B0006DD2DFE800F0830515253541566D8200B8
:1015C00009E06648406B654C0090636C226CE16BEF
:1015D000A06BFFF760FF614840780128F1D06EE012
:1015E00009E05E48806C5D4C0090A36D626D216DDA
:1015F000E06CFFF750FF594840780228F1D05EE0D8
:1016000009E05648C06D554C0090E36EA26E616EC5
:10161000206EFFF740FF514840780328F1D04EE09C
:101620004E48006F4D4C0090D4F88030E26FA16FAF
:10163000606FFFF730FF42E00EE04848D0F88400CA
:10164000464C0090D4F89430D4F89020D4F88C1004
:10165000D4F88800FFF71FFF404840780528ECD0F9
:101660002DE00EE03D48D0F898003C4C0090D4F8B6
:10167000A830D4F8A420D4F8A010D4F89C00FFF728
:101680000AFF364840780628ECD018E018E015E04C
:101690000EE03248D0F8AC00304C0090D4F8BC30AA
:1016A000D4F8B820D4F8B410D4F8B000FFF7F3FEA3
:1016B0002A4840780728ECD001E000E000BF00BFD6
:1016C00038BD2C48006855280FD22B480068552893
:1016D0000BD22A4800685A2807D2294800685A289D
:1016E00003D2284800685A2856D327480078401C5F
:1016F0002549087008460078642850DB642008708B
:101700001048006842E000003333AF415802002027
:1017100000002F435C020020A47089416802002071
:101720000080ABC36C0200200002002004020020F5
:101730004C02002050020020FC0100203802002052
:101740002200002054020020450200207C030020DB
:10175000120000200008014028020020100700208D
:10176000F0010020F4010020F80100208003002097
:101770000800002078030020740300206803002084
:101780006C030020700300204002002020F00200C3
:10179000801CFE49086002E00020FD490870FD48F9
:1017A000006846282BD8FC480068462827D8FB4804
:1017B00000684B2823D8FA4800684B281FD8F948FE
:1017C00000684B281BD8F8480078401CF649087080
:1017D0000020F6490870F6490870F348007864283C
:1017E00035DB6420F04908704FF07E50F149086005
:1017F000E648006820F00200E449086027E0E54878
:10180000006850280FD2E448006850280BD2E34803
:101810000068552807D2E2480068552803D2E148FD
:101820000068552813D3E1480078401CDF49087050
:101830000020DD490870DE490870DC480078642823
:1018400005DB6420D9490870DB48DA490860DB48C9
:10185000006840F24C41884213D9D9480078401CB6
:10186000D74908700846007832280DDB322008700E
:10187000C648006820F4806000F58060C3490860B5
:1018800002E00020CE490870CE48006840F24C418A
:10189000884213D9CC480078401CCB4908700846D0
:1018A000007832280DDB32200870B848006820F438
:1018B000807000F58070B549086002E00020C249E0
:1018C0000870C248007858B1C1480078401CC0492F
:1018D000087008460078642805DD6420087002E07E
:1018E0000020BB490870B7480068B0F5D27F17D216
:1018F000B7480078642813DBB6480078401CB54927
:1019000008700846007864280DDB642008709F4842
:10191000006820F4007000F500709C49086002E047
:101920000020AC490870A7480068B0F5D27F0AD8FB
:101930000020A94908709548006820F00800083088
:101940009249086008E00120A34908708F480068A8
:1019500020F008008D490860A0480078401C9F498D
:10196000087008460078322809DB32200870874862
:10197000006820F0200020308449086005E083489A
:10198000006820F020008149086095480078401CDC
:101990009349087008460078322809DB3220087025
:1019A0007A48006820F0100010307849086005E09F
:1019B0007648006820F0100074490860704710B540
:1019C00088480068401C87490860084600688649C6
:1019D000B0FBF1F201FB12008249086083480078F5
:1019E00006286ADA0846007800F00100002844D092
:1019F0007E48007848B97D480078401C7B490870D3
:101A000010217B4802F07BFA9FE07848007801289B
:101A100009D176480078401C744908702021744828
:101A200002F06DFA91E071480078022809D16F4800
:101A30000078401C6D49087040216D4802F05FFA43
:101A400083E06A480078032809D168480078401C80
:101A5000664908708021664802F051FA75E06348D3
:101A60000078042871D161480078401C5F490870F3
:101A70001021604802F043FA67E05C4800780528CE
:101A800006D15A480078401C584908700020087058
:101A90001021574802F035FA2021554802F031FA5A
:101AA0004021534802F02DFA8021514802F029FAD2
:101AB0001021504802F025FA47E04F48007820B145
:101AC00010214B4802F01BFA03E01021484802F0B5
:101AD00018FA4A480079012810D12021444802F020
:101AE0000EFA4021424802F00CFA8021404802F0F0
:101AF00008FA10213F4802F004FA26E02348006863
:101B000040F6F771084060B14021394802F0F9F918
:101B10008021374802F0F5F91021364802F0EFF93C
:101B200013E01021334802F0ECF92848007840B95E
:101B3000224800681E2804D980212D4802F0DFF9D0
:101B400003E080212A4802F0DCF910BD10B52C48D2
:101B500000782C4908702A484078487028488078D6
:101B600088702748C078C870084800781F2108404E
:101B70002449087105480088C0F34710487122487D
:101B8000C079887120488079C8713FE054020020F4
:101B90004002002078030020740300206803002026
:101BA0006C0300207003002043020020420200204A
:101BB00041020020FC0100206666663F8003002091
:101BC000490200207C03002046020020450200203C
:101BD0004802002047020020E40100204A020020C1
:101BE0004B020020E8010020A0860100EC0100204B
:101BF00000080140001001401200002028020020CF
:101C0000100200203002002020020020024A082199
:101C10000248FFF74DF910BDE650FF1830020020D2
:101C20002DE9F0419AB0054688460024642101A8B8
:101C300004F039FB002600275A222146641C01A823
:101C40004254A5222146641C425400222146641CB1
:101C5000425482222146641C42542A122146641CAA
:101C600042542146641C455400BF09E008F10300BA
:101C7000C01B02782046611CCCB201A90A547F1C0B
:101C8000042FF3D3E01EC0B28DF8060000260CE04E
:101C900001A8815DF84802F00FFB00BF4021F64823
:101CA00002F078FB0028F9D0761CA642F0D31AB0D7
:101CB000BDE8F0812DE9F0419AB007460E460024B8
:101CC000642101A804F0EFFA0025A0465A2221461B
:101CD000641C01A84254A5222146641C42540022DF
:101CE0002146641C425482222146641C42543A120A
:101CF0002146641C42542146641C475496F8638074
:101D000000BF07E016F8012B2046611CCCB201A9E8
:101D10000A546D1C4545F5D3E01EC0B28DF806008F
:101D200000250CE001A8415DD34802F0C5FA00BFD0
:101D30004021D14802F02EFB0028F9D06D1CA542AD
:101D4000F0D31AB0BDE8F081F0B5BFB006460D463D
:101D50000024FC21684604F0A6FA00275A222146F6
:101D6000641C0DF80120A5222146641C0DF80120F9
:101D700000222146641C0DF8012082222146641CA9
:101D80000DF8012032122146641C0DF80120F2B238
:101D90002146641C0DF8012006E015F8012B2046B1
:101DA000611CCCB20DF8002028780028F5D1E01E87
:101DB000C0B28DF8020000270CE01DF80710AE48F5
:101DC00002F07AFA00BF4021AB4802F0E3FA0028A3
:101DD000F9D07F1CA742F0D33FB0F0BD2DE9F04110
:101DE0009AB007460E460024642101A804F05BFA6D
:101DF0000025A0465A222146641C01A84254A5226F
:101E00002146641C425400222146641C4254832211
:101E10002146641C42543A122146641C4254214615
:101E2000641C475496F8638000BF07E016F8012B46
:101E30002046611CCCB201A90A546D1C4545F5D35E
:101E4000E01EC0B28DF8060000250CE001A8415D3F
:101E5000894802F031FA00BF4021874802F09AFA1F
:101E60000028F9D06D1CA542F0D31AB0BDE8F0816E
:101E70003EB50446002000900190029000255A20B3
:101E80008DF80000A5208DF8010007208DF80200D4
:101E900082208DF8030000208DF8040084208DF846
:101EA00005005A208DF8060001208DF80700201249
:101EB0008DF80800E0B28DF8090000BF0CE01DF8B5
:101EC00005106D4802F0F8F900BF40216A4802F0A1
:101ED00061FA0028F9D06D1C0A2DF0D33EBD30B553
:101EE000B3B00025002464211AA804F0DCF96421B1
:101EF00001A804F0D8F961480078B8B160480088BA
:101F0000A0B901208DF8CB008DF868001AA9142023
:101F1000FFF764FF5B48007840B100205949087022
:101F20005748008810B90120FFF7A2FF56480078F3
:101F300058B90120544908708DF8CB008DF868001D
:101F40001AA91420FFF74AFF52E24F4800780128EF
:101F500023D102204C49087001208DF8CB008DF868
:101F600068001AA941F29010FFF738FF474800882F
:101F700040F2D2418842E7D102208DF8CB00002008
:101F80008DF868008DF869001AA941F29010FFF7EA
:101F900091FE0B20FFF76CFF2AE23B4800780228F5
:101FA00029D103203849087001208DF8CB008DF825
:101FB00068001AA941F21010FFF710FF34480078AA
:101FC0000028C1D03348007800F001000028BBD1C0
:101FD000314800880028B7D000202D4908702F48CC
:101FE0000088012803D10A20FFF742FF00E2092000
:101FF000FFF73EFFFCE124480078032810D10420BD
:10200000214908702548008801289DD18DF8CB0012
:102010008DF868001AA941F2F000FFF7DFFEE7E152
:102020001948007804283FD10520174908701B483B
:102030000088012888D18DF8CB008DF868001AA996
:102040004FF48850FFF7CAFE154800880028A3D037
:102050001448008800289FD01148008800EB8000B9
:1020600045001048008800EB8000440021462846C7
:10207000FFF74CF9BCE100000044004011000020D3
:102080001E0000202000002050030020320000200D
:102090002400002030000020340000202200002016
:1020A0002C0000202E000020FE480078052833D1A7
:1020B0000620FC49087001208DF8CB008DF86800DF
:1020C0001AA94FF48950FFF789FEF748007800F00D
:1020D000010000288AD002208DF8CB0000208DF866
:1020E00068008DF869001AA94FF48950FFF7E2FDE6
:1020F000EE48008860B102208DF8CB0000208DF8FA
:1021000068008DF869001AA94FF48D50FFF7D2FDD1
:102110000120FFF7ADFE6BE1E248007806287CD194
:102120000720E0490870E248007860B90120E049E2
:1021300008708DF8CB0004208DF868001AA91020D3
:10214000FFF74CFE6CE0DA48007801280DD1022040
:10215000D749087001208DF8CB008DF868001AA9C6
:1021600041F23010FFF73AFE5AE0D14800780228D9
:102170000DD10320CE49087001208DF8CB008DF8D9
:1021800068001AA94FF48A50FFF728FE48E0C848B3
:10219000007803280DD10420C549087001208DF86E
:1021A000CB008DF868001AA941F25010FFF716FE17
:1021B00036E0BF48007804280DD10520BC490870DE
:1021C00001208DF8CB008DF868001AA94FF48B50D0
:1021D000FFF704FE24E0B648007805280DD106205C
:1021E000B349087001208DF8CB008DF868001AA95A
:1021F00041F27010FFF7F2FD12E0AD4800780628BA
:102200000ED10720AA49087001208DF8CB008DF867
:1022100068001AA94FF48C5000E0D8E0FFF7DEFD0B
:10222000A4480088642190FBF1F201FB1200A1494F
:102230000880A14800880C2802DD0C209E490880F7
:102240009E4800881F2802DD1F209C4908809C486A
:102250000088182802DD18209949088099480088CC
:102260003B2802DD3B2097490880974800883B289F
:1022700002DD3B209449088008208DF867005A2031
:102280008DF80400A5208DF80500894800780728FE
:102290007ED1002086490870864800888B490978DD
:1022A00088421DD18448008889490978884217D11D
:1022B0008248008887490978884211D1804800887F
:1022C0008549097888420BD17E480088834909787E
:1022D000884205D17C48008881490978884257D0D6
:1022E000804800880C2853D17248008828B1714872
:1022F000008876490978884204D1744800788DF8BE
:10230000060003E06B4800788DF806006A480088F4
:1023100028B1694800886E490978884204D16C4820
:1023200000788DF8070003E0634800788DF8070017
:102330006248008828B16148008866490978884267
:1023400004D1644800788DF8080003E05B48007809
:102350008DF808005A48008828B1594800885E491D
:102360000978884204D15C4800788DF8090003E0C0
:10237000534800788DF809005248008828B1514828
:10238000008856490978884206D15448007800E010
:102390002EE08DF80A0003E04A4800788DF80A0024
:1023A0004948008828B1484800884D490978884242
:1023B00004D14B4800788DF80B0003E042480078C8
:1023C0008DF80B0001A99C20FFF774FC10E0354844
:1023D000007807280CD100203249087001208DF8C0
:1023E000CB008DF868001AA94FF48D50FFF7F6FC6A
:1023F00033B030BD00B5AFB00020149013903A4810
:102400004178007801EB00203849086008460068F0
:1024100004F0DAFD15903649159804F0F3FC159098
:1024200015A94FF48050FFF7FBFB2F48C178807847
:1024300001EB00202F4908600846006804F0C4FD45
:1024400015902B49159804F0DDFC159015A941F263
:102450001000FFF7E5FB28488179C07901EB0020E7
:10246000264908600846006804F0AEFD15901598EE
:1024700004F02EFC224A234BCDE90E0104F034FA7D
:10248000CDE9100103F0EAFF159015A94FF4835030
:10249000FFF7C6FB1C484179007901EB00201B497E
:1024A000086035E050030020300000203400002098
:1024B000510300203C0000203E000020400000208E
:1024C000420000204400002046000020360000208A
:1024D0003700002038000020390000203A0000209A
:1024E0003B0000201E000020100200207C03002082
:1024F00000002041800300202002002084030020EF
:1025000037F18246B8E2A73F180200208803002076
:102510000846006804F058FD1590FE48006804F075
:1025200053FD1590FC48006804F0CAF9FB4AFC4BC7
:10253000CDE9080104F0D8F9CDE90C01F9480068AB
:1025400004F042FD0890159904F086FD099004F00E
:10255000BFFBCDE90A01DDE90C2304F059F8F24A8A
:10256000F24BCDE90E0104F053F8CDE9100103F070
:1025700075FF1590E848006808B90020159015A966
:1025800041F27000FFF74CFBE948C179807901EB1B
:102590000020E84908600846006804F015FD159021
:1025A000159804F095FBE44AE44BCDE90E0104F0E4
:1025B0009BF9CDE9100103F051FF159015A94FF4D7
:1025C0008450FFF72DFBDE480179407901EB0020B4
:1025D000DC490860DA488178C07801EB0020DA49EC
:1025E0000860D7480178407801EB0020D74908609F
:1025F000D7484179007901EB0020D6490860D448DA
:10260000C179807901EB0020D3490860CD4800688A
:1026100004F0DAFC1590D149159804F0F3FB0D9005
:1026200004F056FBCE4ACF4BCDE90E0104F05CF925
:10263000CDE9100103F012FF1590CB48159904F075
:1026400009FE0B9004F044FBCDE90E01159804F04F
:102650003FFBB54AC54BCDE90A0104F045F9CDE988
:102660000C01DDE90E2303F0D3FFCDE9100103F0E7
:10267000F5FE1590BE49159804F0EEFC159000206B
:10268000149021E0BB49149851F82000119004F0F7
:102690009BFC1290159904F0ABFD0ED8B549149827
:1026A000401C51F82000119004F08EFC12901599F6
:1026B00004F09EFC01D2662013901398662800D186
:1026C00005E01498401C149014988728DAD300BFB2
:1026D0001398662811D1149804F076FC159015987B
:1026E00004F0F6FA0022A44BCDE90E0104F006FA3C
:1026F000CDE9100103F0B2FE15909248006808B9C8
:1027000000201590159804F03FFC9C49086015A91D
:1027100041F2B000FFF784FA002013908B48006864
:1027200004F052FC15908D49159804F06BFB0D9048
:1027300004F0CEFA8A4A8B4BCDE90E0104F0D4F8AE
:10274000CDE9100103F08AFE15908748159904F031
:1027500081FD0B9004F0BCFACDE90E01159804F050
:10276000B7FA714A814BCDE90A0104F0BDF8CDE911
:102770000C01DDE90E2303F04BFFCDE9100103F05E
:102780006DFE15907A49159804F066FC15900020AE
:10279000149021E07749149851F82000119004F02A
:1027A00013FC1290159904F023FD0ED8714914986A
:1027B000401C51F82000119004F006FC129015996D
:1027C00004F016FC01D2662013901398662800D1FD
:1027D00005E01498401C149014988728DAD300BFA1
:1027E0001398662811D1149804F0EEFB15901598F3
:1027F00004F06EFA0022604BCDE90E0104F07EF980
:10280000CDE9100103F02AFE15905048006808B980
:1028100000201590159804F0B7FB5949086015A9D8
:1028200041F29000FFF7FCF9002013904648006841
:1028300004F0CAFB15904949159804F0E3FA0D908D
:1028400004F046FA464A474BCDE90E0104F04CF835
:10285000CDE9100103F002FE15904348159904F0EC
:10286000F9FC0B9004F034FACDE90E01159804F050
:102870002FFA2D4A3D4BCDE90A0104F035F8CDE998
:102880000C01DDE90E2303F0C3FECDE9100103F0D6
:10289000E5FD15903649159804F0DEFB15900020F3
:1028A000149021E03349149851F82000119004F05D
:1028B0008BFB1290159904F09BFC0ED82D491498AF
:1028C000401C51F82000119004F07EFB12901599E5
:1028D00004F08EFB01D2662013901398662800D175
:1028E00005E01498401C149014988728DAD300BF90
:1028F000139866284BD1149804F066FB1590159830
:1029000004F0E6F900221C4BCDE90E0104F0F6F8C4
:1029100038E000007C0300208403002037F1824669
:10292000B8E2A73F80030020CDCCCCCCCCAC61403A
:10293000180200208C03002080B74082E2C7983F35
:10294000200200205C0300205403002058030020D4
:102950001002002060030020640300200000A04655
:10296000FCA9F1D24D6210400000A040CCCC0C403C
:1029700000007A44900300200000444070030020CF
:102980006C030020CDE9100103F068FD1590FE48AE
:10299000006808B900201590159804F0F5FAFB4975
:1029A000086015A94FF48550FFF73AF900201390FD
:1029B000F748006804F008FB15904FF08B4115981C
:1029C00004F020FA0D9004F083F94FF06632F14BD9
:1029D000CDE90E0103F088FFCDE9100103F03EFDC3
:1029E0001590159804F074F9CDE90E01159804F0CE
:1029F0006FF9E94AE94BCDE9080103F075FFE84AB0
:102A0000E84BCDE90A0104F06DF8CDE90C01DDE9F0
:102A10000E2303F0FDFDCDE9100103F01FFD15901D
:102A2000E149159804F018FB15900020149021E05E
:102A3000DE49149851F82000119004F0C5FA129064
:102A4000159904F0D5FB0ED8D8491498401C51F8BC
:102A50002000119004F0B8FA1290159904F0C8FA09
:102A600001D2662013901398662800D105E01498CF
:102A7000401C149014988728DAD300BF1398662856
:102A800011D1149804F0A0FA1590159804F020F9CB
:102A90000022C74BCDE90E0104F030F8CDE910015A
:102AA00003F0DCFC1590BA48006808B900201590C6
:102AB000159804F069FABF49086015A94FF48650CB
:102AC000FFF7AEF800201390BB48006804F07CFAD2
:102AD00015904FF08B41159804F094F90D9004F087
:102AE000F7F84FF06632AB4BCDE90E0103F0FCFE78
:102AF000CDE9100103F0B2FC1590159804F0E8F848
:102B0000CDE90E01159804F0E3F8A34AA34BCDE9F3
:102B1000080103F0E9FEA24AA24BCDE90A0103F045
:102B2000E1FFCDE90C01DDE90E2303F071FDCDE9F4
:102B3000100103F093FC15909B49159804F08CFA52
:102B400015900020149021E09849149851F8200025
:102B5000119004F039FA1290159904F049FB0ED83F
:102B600092491498401C51F82000119004F02CFA5E
:102B70001290159904F03CFA01D266201390139834
:102B8000662800D105E01498401C149014988728FA
:102B9000DAD300BF1398662811D1149804F014FA00
:102BA0001590159804F094F80022814BCDE90E01A0
:102BB00003F0A4FFCDE9100103F050FC15907E480E
:102BC000006808B900201590159804F0DDF97B49DC
:102BD000086015A941F2D000FFF722F87848006894
:102BE000B0F5D27F09D9774800681E2805D976A1AB
:102BF00041F25000FFF7A8F80EE0714800682A285B
:102C000005D973A141F25000FFF79EF804E072A1CC
:102C100041F25000FFF798F871A14FF48250FFF78E
:102C200093F87148007800F0010028B16FA14FF4CB
:102C30008750FFF789F87DE06B480078C0F34000CB
:102C400028B16DA14FF48750FFF77EF872E0664817
:102C50000078C0F3800028B16AA14FF48750FFF7D5
:102C600073F867E060480078C0F3C00028B169A13C
:102C70004FF48750FFF768F85CE05B480078C0F3DA
:102C8000001028B166A14FF48750FFF75DF851E0BE
:102C900055480078C0F3401028B165A14FF4875023
:102CA000FFF752F846E050480078C0F3801028B192
:102CB00063A14FF48750FFF747F83BE04A4800789C
:102CC000C0F3C01028B162A14FF48750FFF73CF861
:102CD00030E045480088C0F3002028B160A14FF4DF
:102CE0008750FFF731F825E03F480088C0F3802087
:102CF00028B15EA14FF48750FFF726F81AE03A4852
:102D00000088C0F3402028B15BA14FF48750FFF743
:102D10001BF80FE034480088C0F3C02028B159A147
:102D20004FF48750FFF710F804E05AA14FF4875092
:102D3000FFF70AF85B48007820B35B48007808B3D7
:102D40000020594908705948007800F033FA00F023
:102D50000F0012905548007800F02CFA00091190ED
:102D60005348007800F026FA00F00F001090504809
:102D7000007800F01FFA00090F904E48007800F02C
:102D800019FA99E0DFE000005403002068030020F6
:102D90006003002066660A4014AE47E17A14DE3F05
:102DA000CDCCCCCCCCCC024000007A4490030020A7
:102DB00000004440740300206403002078030020D6
:102DC0007C03002080030020B3E4B5E7D6D00000E8
:102DD000D2D1C1ACBDD30000CEB4C1ACBDD30000D4
:102DE000EFAEB5E70000000054020020D3B2BCFEF5
:102DF000B9CAD5CF00000000B9FDCEC2B9CAD5CF3F
:102E000000000000CAE4C8EBB5E7D1B9B9CAD5CF14
:102E100000000000B5E7B3D8CEB4C1ACBDD300000C
:102E2000BDD3CAD5424D53B1A8CEC4B3ACCAB100CC
:102E3000BDD3CAD54C4C43B1A8CEC4B3ACCAB100C3
:102E40004C4C43B4AEBFDABDD3CAD5B3ACCAB100A3
:102E5000504643B4AEBFDABDD3CAD5B3ACCAB10095
:102E6000CAE4B3F6B9FDD1B900000000CAE4B3F674
:102E7000B9FDC1F700000000CAE4B3F6C7B7D1B985
:102E800000000000C4B8CFDFB5E7D1B9D2ECB3A3DE
:102E900000000000B9A4D7F7D7B4CCACD5FDB3A3DC
:102EA0000000000045020020520300203B000020EB
:102EB0003A0000203900002000F00F000E90234857
:102EC000007800F077F900090D902148007800F0B3
:102ED00071F900F00F000C901D48007800F06AF9BD
:102EE00000090B901B48007800F064F900F00F0017
:102EF0000A901848007800F05DF900090990DDE9B2
:102F00000F23DDE91110CDE90423CDE90610DDE939
:102F10000B23DDE90D10CDE90023CDE902100EA150
:102F200016A8DDE9092303F01BF916A941F2B01038
:102F3000FEF70AFF0FA116A803F012F916A94FF425
:102F40008E50FEF701FF2FB000BD000039000020B9
:102F50003800002037000020256425642D256425D5
:102F60006420256425643A256425643A2564256433
:102F700000000000BFAABBFA00000000242000BF30
:102F8000011EA0F10100FBD1704710B54FF4007194
:102F90009D4800F0B4FF4FF480719B4800F0AFFFF4
:102FA000FFF7ECFF4FF40071974800F0AAFFFFF71E
:102FB000E5FF4FF48071944800F0A3FF10BD10B5F9
:102FC0004FF40071904800F09CFF4FF480718E48E0
:102FD00000F095FFFFF7D2FF4FF400718A4800F030
:102FE0008EFFFFF7CBFF4FF48071874800F089FF19
:102FF00010BD70B5002400254FF48071824800F0A8
:103000007EFFFFF7BBFF4FF400717F4800F077FFB2
:103010004FF400717C4800F058FF05460CE04FF477
:103020000071794800F06BFF4FF40071764800F0B2
:103030004CFF0546601CC4B20DB1FF2CEFDB4FF412
:103040008071714800F05DFFFFF798FF70BD70B5AB
:10305000044600252BE004F0800098B14FF4807105
:10306000694800F04EFF4FF40071674800F047FFD9
:10307000FFF784FF4FF48071634800F040FFFFF7D3
:103080007DFF10E04FF480715F4800F03AFF4FF48D
:1030900000715D4800F035FFFFF770FF4FF480715D
:1030A000594800F02CFF6006040E681CC5B2072DBD
:1030B000D1DD4FF48071544800F023FF4FF40071CC
:1030C000514800F01CFF70BD70B500264FF4007130
:1030D0004D4800F014FF4FF400714B4800F0F5FE2E
:1030E000064600251DE04FF48071474800F009FFB7
:1030F000FFF744FF4FF48071434800F000FFFFF7F3
:103100003DFF4FF40071404800F0F9FE4FF40071AC
:103110003D4800F0DAFE064646EA4400C4B2681CA8
:10312000C5B2072DDFDD4FF48071374800F0E9FEAE
:10313000FFF724FF204670BD70B505460C46FFF72B
:1031400024FFA220FFF783FFFFF753FF2846FFF776
:103150007EFFFFF74EFF2046FFF779FFFFF749FF9D
:10316000FFF72DFF70BD70B50446FFF70EFFA220DC
:10317000FFF76DFFFFF73DFF2046FFF768FFFFF702
:1031800038FFFFF702FFA320FFF761FFFFF731FFD2
:10319000FFF79AFF0546FFF712FF284670BD01466C
:1031A0000020080901F00F0200EB800302EB43024C
:1031B000D0B27047014600200A2291FBF2F2D0B251
:1031C0000A2291FBF2F302FB1312D1B20A4660F31A
:1031D0001F12D0B2704710B50C480078FFF7EAFF15
:1031E0000A490870084601780820FFF7A5FF082063
:1031F000FFF7B9FF0649087008460078FFF7CFFFD0
:103200000349087010BD0000000C0140AD0500200E
:10321000AC05002010B504462046FDF785FE10BD24
:1032200010B53820FEF744F810BD10B50820FEF7A1
:103230003FF810BD10B54021FE4800F060FEFF20B1
:10324000FFF7E8FF10BD10B5002400BFFF20FFF717
:10325000E1FFFF2801D1002010BD641C6FF07F400A
:103260008442F3D30120F7E710B54021F14800F084
:1032700048FEFFF7E8FF08B9002010BDFFF7DAFFAE
:103280000120FAE770B505464FF6FF7401E0601EB5
:1032900084B2FF20FFF7BEFFA84201D0002CF6D178
:1032A0000CB9FF2070BD0020FCE770B504460D4648
:1032B000FE20FFF7E7FF08B1012070BD04E0FF200A
:1032C000FDF732FE2070641C281EA5F101018DB2AD
:1032D000F5D1FF20FFF79EFFFF20FFF79BFF0020A7
:1032E000EBE770B506460D46FFF7ADFF08B10120CC
:1032F00070BD2846FFF78EFFFD2D19D0002404E095
:10330000305DFDF711FE601C84B2B4F5007FF7DB81
:10331000FF20FFF77FFFFF20FFF77CFFFF20FFF775
:1033200079FF044604F01F00052801D00220DFE7E2
:103330000020DDE72DE9F04705460C4690460027C2
:10334000B946FFF777FFFFF78FFF10B1FF20BDE809
:10335000F0872F4607F07F0747F040073846FFF712
:1033600059FF200EFFF756FFC4F30740FFF752FF47
:10337000C4F30720FFF74EFFE0B2FFF74BFF48F022
:103380000100FFF747FF0C2D02D1FF20FFF742FF9E
:103390004FF01F0900BFFF20FFF73CFF064606F075
:1033A000800030B1B9F10000A9F1010101F0FF097D
:1033B000F1D13046CBE7F8B5002504E0FF20FFF758
:1033C00029FF681C85B20A2DF8DB142600BF952260
:1033D00000210846FFF7AEFF0446012C04D0301E42
:1033E000A6F101018EB2F2D1002093490870012CA0
:1033F00032D187224FF4D5710820FFF79BFF0128B7
:103400004AD1002506E0FF20FFF704FF0DF8050074
:10341000681C85B2042DF6DB9DF8020001287CD1E2
:103420009DF80300AA2878D14FF6FE7600BF01224E
:1034300000213720FFF77EFF012291072920FFF7A7
:1034400079FF044624B1301EA6F101018EB2EED1FF
:103450001EB90020784908705FE0012200213A205F
:10346000FFF768FF002858D1002506E0FF20FFF78E
:10347000D1FE0DF80500681C85B2042DF6DB9DF821
:10348000000000F0400018B106206B49087044E0CD
:1034900004206949087040E0012200213720FFF72D
:1034A00049FF012200212920FFF744FF0446012C97
:1034B00017DC0220604908704FF6FE7600BF01223B
:1034C00000213720FFF736FF012200212920FFF7D6
:1034D00031FF0446BCB1301EA6F101018EB2EED11F
:1034E00011E00120544908704FF6FE7600BF01221A
:1034F00000211046FFF71EFF044624B1301EA6F13E
:1035000001018EB2F3D12EB1012251021020FFF73A
:1035100011FF10B1002048490870FFF78BFEFFF73C
:1035200084FE4548007808B10020F8BD0CB1204663
:10353000FBE7AA20F9E72DE9F04106460F461546BC
:103540003D480078062800D07F02012D0CD10122D1
:1035500039461120FFF7EEFE044604BB69023046EF
:10356000FFF7A3FE04461AE0012239461220FFF7B6
:10357000E1FE04469CB900BF4FF400713046FFF7EE
:1035800094FE044606F50076681EC0B2051E01D002
:10359000002CF1D0012200210C20FFF7CBFEFFF719
:1035A00049FE2046BDE8F0812DE9F04106460F4670
:1035B000154621480078062800D07F02012D0CD145
:1035C000012239461820FFF7B5FE04466CBBFE21E8
:1035D0003046FFF786FE044627E0174800780128AA
:1035E00009D0012200213720FFF7A4FE012229463D
:1035F0001720FFF79FFE012239461920FFF79AFE98
:10360000044694B900BFFC213046FFF76AFE044629
:1036100006F50076681EC0B2051E01D0002CF2D05F
:10362000FD210020FFF75DFE0446FFF703FE204664
:10363000BDE8F081000C0140AE05002070B50546E4
:10364000012200210920FFF775FE044624B910214C
:103650002846FFF72AFE0446FFF7ECFD0CB10120D7
:1036600070BD0020FCE77FB56846FFF7E7FF10B1AB
:10367000002004B070BD9DF8000000F0C00040289C
:1036800009D19DF809009DF8081000EB0120401CAD
:1036900084B2A50220E09DF8050000F00F009DF81F
:1036A0000A1000EBD1109DF8091001F0030100EBA6
:1036B0004100861C9DF8080080119DF8071000EB62
:1036C00081009DF8061001F0030100EB8120441CED
:1036D000A6F1090004FA00F52846CAE770B50546C8
:1036E000012200210A20FFF725FE044624B91021FB
:1036F0002846FFF7DAFD0446FFF79CFD0CB10120D8
:1037000070BD0020FCE7000031490143314A1160DF
:10371000704770B5002100230F22C47804B32D4CEC
:10372000246804F4E064C4F5E064210AC1F10403F0
:10373000CA40447804FA03F1847814402143090113
:10374000254C0678A155047804F01F050124AC40EF
:1037500005786D11AD0005F1E025C5F8004109E0DF
:10376000047804F01F050124AC401C4D0678761146
:1037700045F8264070BD1A4A0A400243154B1B1FEC
:103780001A60704739B1134A121D12680243114B77
:103790001B1D1A6006E00F4A121D126882430D4B72
:1037A0001B1D1A607047042808D14FF0E0210969F9
:1037B00041F004014FF0E022116107E04FF0E021F9
:1037C000096921F004014FF0E02211617047000007
:1037D0000000FA050CED00E000E400E080E100E00C
:1037E00080FFFF1FFB48006840F00100F9490860B6
:1037F00008464068F8490840F649486008460068AD
:10380000F6490840F34908600846006820F4802023
:1038100008600846406820F4FE00486008460068DA
:1038200020F0A05008604FF47F0088600020C8623C
:103830007047E849096821F48031E64A1160114671
:10384000096821F480211160B0F5803F03D0B0F504
:10385000802F0ED106E0DF49096841F48031DD4A4E
:10386000116007E0DB49096841F4A021D94A1160E1
:1038700000E000BF00BF704710B5014600220023E2
:1038800000204A11012A02D1D24C236806E0022A04
:1038900002D1D04C236A01E0CE4C636A01F01F02D2
:1038A000012494401C400CB1012000E0002010BD18
:1038B00038B5002000900024002500BF3120FFF71C
:1038C000DBFF05460098401C00900098B0F5A06F03
:1038D00001D0002DF2D03120FFF7CEFF08B1012436
:1038E00000E00024204638BD01460020B94A106897
:1038F00020F0F80040EAC10010607047B849086045
:10390000704702460020B34B586820F4741042EA16
:1039100001031843AF4B58607047B14908667047C0
:1039200002460020AB4BD86AAE4B184042EA010376
:103930001843A84BD862704701460020A54AD06AB8
:1039400020F0F0000843D062704701460020A14AF1
:10395000D06A20F470600843D0627047A04988663E
:103960007047014600209B4AD06A20F4704008430B
:10397000D06270479A490867704701460020954A0F
:10398000506820F003000843506070479148406839
:1039900000F00C007047014600208E4A506820F06D
:1039A000F00008435060704701460020894A506883
:1039B00020F4E06008435060704701460020854ACB
:1039C000506820F4605040EAC1005060704729B14F
:1039D000804A527A02437F4B5A7204E07D4A527AFF
:1039E00082437C4B5A7270477D49D83108607047DA
:1039F00001460020774A506820F440400843506058
:103A000070477949086070477749091D0860704719
:103A10000021704A203211706E4A82F8201001286D
:103A200002D004280AD104E001216A4A2032117030
:103A300005E00521674A2032117000E000BF00BF99
:103A400070476A49086070476249096A0143614AE0
:103A50001162704765494439086070472DE9F041AB
:103A600000210022002500230026002400278C4688
:103A7000DFF86081D8F8048008F00C0121B1042936
:103A800007D0082959D109E0DFF86481C0F8008027
:103A900058E0DFF85C81C0F8008053E0DFF8348143
:103AA000D8F8048008F47012DFF82881D8F8048070
:103AB00008F48035920C0D2A01D0921C00E00622F9
:103AC00035B9DFF8308102FB08F8C0F8008033E038
:103AD000DFF80081D8F82C8008F48036DFF8F48015
:103AE000D8F82C8008F00F0808F1010446B9DFF877
:103AF0000081B8FBF4F808FB02F8C0F800801BE076
:103B0000DFF8D080D8F82C80C8F3031808F101073B
:103B1000DFF8C080D8F82C80C8F3032808F1020C25
:103B2000DFF8CC80B8FBF7F808FB0CF8B8FBF4F82A
:103B300008FB02F8C0F8008004E0DFF8B480C0F8A9
:103B4000008000BF00BFDFF88C80D8F8048008F048
:103B5000F0010909DFF8A08018F80130D0F80080E2
:103B600028FA03F8C0F80480DFF86880D8F80480E9
:103B700008F4E061090ADFF8808018F80130D0F815
:103B8000048028FA03F8C0F80880DFF84880D8F8E5
:103B9000048008F46051C90ADFF85C8018F801302D
:103BA000D0F8048028FA03F8C0F80C80DFF82480ED
:103BB000D8F8048008F44041890BDFF8408018F8F9
:103BC0000130D0F80C80B8FBF3F8C0F81080BDE8E5
:103BD000F0810000001002400000FFF0FFFFF6FE41
:103BE00000004242F0FFFEFFC40542428004424210
:103BF00000127A0000093D00AF050020BF0500203B
:103C000029B1354A52690243334B5A6104E0324AC2
:103C100052698243304B5A61704729B12E4A9269EA
:103C200002432D4B9A6104E02B4A926982432A4B4E
:103C30009A61704729B1284AD2690243264BDA615A
:103C400004E0254AD2698243234BDA61704729B1E7
:103C5000214A926A0243204B9A6204E01E4A926A09
:103C600082431D4B9A62704729B11B4AD2680243B6
:103C7000194BDA6004E0184AD2688243164BDA60C6
:103C8000704729B1144A12690243134B1A6104E0C8
:103C9000114A12698243104B1A6170470F4908603C
:103CA00070470F49C86470470B49C87170470A488C
:103CB000406A40F080700849486270470146002021
:103CC000054A92680A400AB1012000E000207047CE
:103CD00001498872704700000010024040044242CF
:103CE0000000424210B50446CC48844208D101216C
:103CF0000420FFF7B9FF00210420FFF7B5FF46E0DD
:103D0000C748844208D101210820FFF7ADFF0021F8
:103D10000820FFF7A9FF3AE0C248844208D10121F8
:103D20001020FFF7A1FF00211020FFF79DFF2EE0DC
:103D3000BD48844208D101212020FFF795FF0021D2
:103D40002020FFF791FF22E0B848844208D10121EA
:103D50004020FFF789FF00214020FFF785FF16E094
:103D6000B348844208D101218020FFF77DFF002164
:103D70008020FFF779FF0AE0AE48844207D1012195
:103D80008015FFF771FF0021A015FFF76DFF10BD33
:103D900010B501210846FFF767FF00210120FFF75A
:103DA00063FF10BD2DE9F0410246002500260020EA
:103DB00000230024002791F803C00CF00F0591F8B0
:103DC00003C00CF0100CBCF1000F03D091F802C03E
:103DD0004CEA050591F800C0BCF1000F31D0146821
:103DE00000202BE04FF0010C0CFA00F3B1F800C0FA
:103DF0000CEA03069E4220D183004FF00F0C0CFA10
:103E000003F7BC4305FA03FC4CEA040491F803C031
:103E1000BCF1280F06D14FF0010C0CFA00FCC2F8DF
:103E200014C00AE091F803C0BCF1480F05D14FF06F
:103E3000010C0CFA00FCC2F810C0401C0828D1D3B9
:103E40001460B1F800C0BCF1FF0F34DD54680020ED
:103E50002EE000F1080C4FF0010808FA0CF3B1F85D
:103E600000C00CEA03069E4221D183004FF00F0CE4
:103E70000CFA03F7BC4305FA03FC4CEA040491F87E
:103E800003C0BCF1280F05D100F1080C08FA0CF8AA
:103E9000C2F8148091F803C0BCF1480F07D100F1BB
:103EA000080C4FF0010808FA0CF8C2F81080401C0A
:103EB0000828CED35460BDE8F0814FF6FF71018031
:103EC000022181700421C17070470246002093686E
:103ED0000B400BB1012000E00020704701468868CC
:103EE00080B2704702460020D3680B400BB101201E
:103EF00000E0002070470146C86880B27047016149
:103F00007047416170470AB1016100E0416170474B
:103F1000C16070474FF480320A43826181618261DF
:103F200082698269704702460020434B18684FF649
:103F30008073184040EA021008433F4B18607047F6
:103F40003E49C8617047F0B50A46002300240021AD
:103F5000002500F00046B6F1004F02D1364EF1695F
:103F600001E0354E7168C0F3034583B200F440169A
:103F7000B6F5401F08D121F070612F4E766826F00B
:103F800070662D4F7E6012E000F48016B6F5801F3B
:103F900006D1032606FA05F4A14341F0706106E05C
:103FA000460D360103FA06F6B14341F0706122B1C5
:103FB000460D360103FA06F6314300F00046B6F12D
:103FC000004F02D11C4EF16101E01B4E7160F0BD4B
:103FD00030B500228B071C0F0F2303FA04F2164B97
:103FE00008338C1053F824309343134C08348D104D
:103FF00044F8253023468C1053F824308C07240FC6
:1040000000FA04F423430C4C08348D1044F8253096
:1040100030BD0A49DC3108607047000000080140EB
:10402000000C014000100140001401400018014044
:10403000001C01400020014000000140000020421F
:1040400010B50446FB48844209D101218803FFF7DB
:104050000BFE00214FF48040FFF706FE32E0F648E9
:10406000844209D101214804FFF70BFE00214FF4DF
:104070000030FFF706FE25E0F048844209D1012117
:104080008804FFF7FEFD00214FF48020FFF7F9FDC3
:1040900018E0EB48844209D10121C804FFF7F1FD83
:1040A00000214FF40020FFF7ECFD0BE0E5488442CF
:1040B00008D101210805FFF7E4FD00214FF480102D
:1040C000FFF7DFFD10BD2DE9F04786B005460E462F
:1040D0000024A24600BFA1460027B08900B100BF5E
:1040E0002F462C8A4CF6FF700440F08804432C8243
:1040F000AC894EF6F3100440B088318908437189C9
:1041000008430443AC81AC8A4FF6FF400440B089B9
:104110000443AC8201A8FFF7A1FCC648874202D144
:10412000DDF810A001E0DDF80CA0A88900F4004043
:1041300040B10AEBCA0000EB0A1031684900B0FB3D
:10414000F1F807E00AEBCA0000EB0A1031688900B9
:10415000B0FBF1F86420B8FBF0F004012009642101
:1041600001FB1089A88900F4004040B1322000EB27
:10417000C900B0FBF1F000F00700044308E0322072
:1041800000EB09106421B0FBF1F000F00F000443D4
:104190002C8106B0BDE8F0874FF416510160002174
:1041A0008180C18001810C21418100218181704782
:1041B00010B502460020108A4FF2FF0318400B880A
:1041C0004C8823438C882343CC8823431843108294
:1041D00010BD0021018041808180C180704721B1E4
:1041E000828942F40052828104E082894DF6FF7395
:1041F0001A4082817047F0B503460024002600254E
:10420000002040F66A17B94200D100BF1846C1F33A
:10421000421401F01F06012707FA06F5012C01D10F
:104220000C3004E0022C01D1103000E014301AB13F
:1042300007682F43076002E00768AF430760F0BDDF
:104240001AB1838A0B43838202E0838A8B43838281
:104250007047028A4FF6F0731A400282028A0A43BC
:104260000282704782894FF2FF731A4082818289ED
:104270000A438281704721B1828942F00202828121
:1042800004E082894FF6FD731A4082817047028AEA
:104290004FF6DF731A400282028A0A430282704795
:1042A00021B1028A42F48042028204E0028A4BF683
:1042B000FF731A4002827047C1F308028280704780
:1042C00001468888C0F308007047818941F00101E8
:1042D00081817047028BD2B20283028B42EA0122B3
:1042E00002837047028B02F47F420283028B0A43EF
:1042F0000283704721B1828A42F02002828204E068
:10430000828A4FF6DF731A408282704721B1828A17
:1043100042F01002828204E0828A4FF6EF731A4064
:104320008282704721B1828A42F00802828204E0D0
:10433000828A4FF6F7731A408282704721B18289D0
:1043400042F40042828103E08289C2F30E0282813C
:10435000704721B1828A42F40062828204E0828A3C
:104360004FF2FF731A4082827047828A4FF6FB73C6
:104370001A408282828A0A438282704721B1828AED
:1043800042F00202828204E0828A4FF6FD731A40F4
:104390008282704702460020B1F5007F00D100BF45
:1043A00013880B400BB1012000E00020704701F49E
:1043B0000072B2F5007F00D100BFCA43028070478F
:1043C00070B50246002400230025002040F66A163E
:1043D000B14200D100BFC1F3421501F01F03012615
:1043E00006FA03F3012D02D19689334006E0022D2F
:1043F00002D1168A334001E0968A33400C1201261E
:1044000006FA04F41688344013B10CB1012000E020
:10441000002070BD10B50022002340F66A14A142AE
:1044200000D100BF0A1201249440A3B2DC430480EF
:1044300010BD00000038014000440040004800402A
:10444000004C00400050004010B50446FE48844235
:1044500009D101214806FFF714FC00214FF000703C
:10446000FFF70FFC08E001218806FFF70AFC002196
:104470004FF08060FFF705FC10BD30B5024600200C
:104480000023146824F002041460146844F001044A
:10449000146000E05B1C546804F001041CB94FF682
:1044A000FF74A342F6D1546804F001040CB9002053
:1044B0006CE08C79012C04D1146844F08004146001
:1044C00003E0146824F080041460CC79012C04D13A
:1044D000146844F04004146003E0146824F04004BD
:1044E00014600C7A012C04D1146844F02004146088
:1044F00003E0146824F0200414604C7A012C04D1E9
:10450000146844F01004146003E0146824F01004EC
:1045100014608C7A012C04D1146844F008041460EF
:1045200003E0146824F008041460CC7A012C04D150
:10453000146844F00404146003E0146824F00404D4
:1045400014608C78A407CD7844EA05640D7944EAB8
:1045500005444D7944EA05540D886D1E2C43D46101
:10456000146824F001041460002300E05B1C54680C
:1045700004F001041CB14FF6FF74A342F6D1546855
:1045800004F001040CB1002000E0012030BD10B5A2
:104590000021837A012202FA03F1AC4A126842F048
:1045A0000102AA4B1A60A94A1C3212688A43A74B1F
:1045B0001C331A60027BCAB9A44A0C3212688A43BF
:1045C000A24B0C331A604288C38842EA03439F4AD5
:1045D0004032847A42F834300288838842EA0343C6
:1045E0009A4A4032847A02EBC4025360027B012A69
:1045F00019D1964A0C3212680A43944B0C331A6054
:104600004288038842EA0343904A4032847A42F85F
:104610003430C288838842EA03438C4A4032847A29
:1046200002EBC4025360C27A3AB9884A121D12687A
:104630008A43864B1B1D1A6006E0844A121D1268CD
:104640000A43824B1B1D1A60028932B97F4A143219
:1046500012688A437D4B14331A600289012A06D1FD
:104660007A4A143212680A43784B14331A60427B38
:10467000012A06D1754A1C3212680A43734B1C3357
:104680001A60724A126822F00102704B1A6010BD63
:1046900000218171C171017241728172C172817098
:1046A000C170032101710221417101210180704714
:1046B0006649096841F00101644A116011460968C0
:1046C00043F60E729143614A11601146096841EA4E
:1046D000002111601146096821F001011160704745
:1046E00021B1026842F48032026003E0026822F4E1
:1046F000803202607047E1B1026842F080020260DD
:104700004FF4C272125842F480734FF4C2721350C5
:104710004FF4CA72125842F480734FF4CA721350A5
:104720004FF4D272125842F480734FF4D272135085
:104730001BE0026822F0800202604FF4C27212583D
:1047400022F480734FF4C27213504FF4CA7212589D
:1047500022F480734FF4CA7213504FF4D27212587D
:1047600022F480734FF4D2721350704710B5024692
:104770000020936803F08063B3F1806F00D110E0F4
:10478000936803F00063B3F1006F01D1012008E0EA
:10479000936803F08053B3F1805F01D1022000E001
:1047A0000420042879D002F5C07303EB00131B68C2
:1047B00003F0010402F5C07303EB00131C600B7AD5
:1047C0007BB94B7A0C8843EA445302F5C07404EB7E
:1047D00000142468234302F5C07404EB0014236022
:1047E00010E00B7A4C6843EAC4034C7A234302F589
:1047F000C07404EB00142468234302F5C07404EB76
:10480000001423608B7A03F00F038B7202F5C073E0
:1048100003EB00135B6823F00F0402F5C07303EB96
:1048200000135C6002F5C07303EB00135B688C7AC5
:10483000234302F5C07404EB001463608B7B1C06F9
:104840004B7B44EA034403E0006400400066004000
:104850000B7B44EA0323CC7A234302F5C07404EBB8
:104860000014A3608B7C1C064B7C44EA03440B7C45
:1048700044EA0323CC7B234302F5C07404EB001409
:10488000E36002F5C07303EB00131B6843F00104FF
:1048900002F5C07303EB00131C6010BD10B5024697
:1048A000002321B1012907D002290FD109E0906826
:1048B000F94C00EA04030BE09068F84C00EA0403AA
:1048C00006E09068F64C00EA040301E0002300BF14
:1048D00000BFF44C181BA34216D007DC83B16FF065
:1048E0008060184470B1022818D111E0B0F5007F43
:1048F00010D0ED4C204448B1B0F5003F0ED10BE094
:1049000002230DE000230BE0002309E0002307E071
:10491000012305E0012303E0012301E0002300BFA0
:1049200000BFD8B210BD21B1012907D002290FD193
:1049300009E0826842F0800282600AE0826842F404
:104940000042826005E0826842F40002826000E07A
:1049500000BF00BF704710B500F5D87303EB01131B
:104960001B6803F004031372137A53B900F5D8736C
:1049700003EB01131B6840F2FF7404EA5353136006
:1049800009E000F5D87303EB01131B686FF0604476
:1049900004EAD303536000F5D87303EB01131B68DB
:1049A00003F00203537200F5D87303EB01135B6845
:1049B00003F00F03937200F5D87303EB01135B68E8
:1049C0001B0AD37400F5D87303EB01139B68D372F1
:1049D00000F5D87303EB01139B681C0A147300F5F0
:1049E000D87303EB01139B681C0C547300F5D87348
:1049F00003EB01139B681B0E937300F5D87303EB55
:104A00000113DB68D37300F5D87303EB0113DB6884
:104A10001C0A147400F5D87303EB0113DB681C0C3B
:104A2000547400F5D87303EB0113DB681B0E937409
:104A300021B9C36843F02003C36003E0036943F076
:104A40002003036110BD21B9C26842F02002C26098
:104A500003E0026942F02002026170470246002032
:104A600019B9D36803F0030006E0012903D11369E3
:104A700003F0030000E00020704710B502460B462B
:104A800000204FF6FF71BBB9146824F0020444F013
:104A90000104146000E0491E546804F00304012C72
:104AA00001D00029F7D1546804F00304012C01D08F
:104AB000002032E0012030E0012B13D1146824F0F3
:104AC0000304146000E0491E546804F003040CB1B0
:104AD0000029F8D1546804F003040CB100201CE054
:104AE00001201AE0022B17D1146824F0010444F0CD
:104AF0000204146000E0491E546804F00304022C10
:104B000001D00029F7D1546804F00304022C01D02D
:104B1000002002E0012000E0002010BD014600203E
:104B20000A6822F0010242F002020A604A6802F0BA
:104B30000302022A00D10120704701464FF6FF729E
:104B400000200B6823F002030B6000E0521E4B684C
:104B500003F00203022B01D1002AF7D14B6803F0C6
:104B60000203022B00D001207047014600208A6911
:104B700002F070007047014600208A69100E7047ED
:104B8000014600208A69C2F3074070471AB14369A1
:104B90000B43436102E043698B434361704710B5A7
:104BA0000246002001F4700343B19369C1F313047A
:104BB00023400BB101202DE000202BE001F0807399
:104BC00043B15368C1F3130423400BB1012021E02A
:104BD00000201FE001F0006343B19368C1F31304A8
:104BE00023400BB1012015E0002013E001F0007319
:104BF00043B1D368C1F3130423400BB1012009E092
:104C0000002007E01369C1F3130423400BB1012016
:104C100000E0002010BD0022244B994202D1002365
:104C2000836111E0C1F3130201F000730BB1C260A4
:104C30000AE001F080630BB1026105E001F000635E
:104C40000BB1826000E0426070470246002002EA39
:104C500001030BB1012000E00020704770B504464D
:104C60000D46002660692840002872D0B5F5807F87
:104C700069D01DDC082D42D006DC012D2DD0022D7F
:104C800031D0042D7FD134E0102D3ED0202D42D0E4
:104C9000402D78D145E00000030000040003000827
:104CA00000000310000100080001FFF77000F03061
:104CB000B5F5004F61D009DCB5F5007F4AD0B5F5F8
:104CC000806F4DD0B5F5006F5DD150E0B5F5803FF8
:104CD0002DD0B5F5003F56D12FE0A0685549FFF71C
:104CE000B4FF064651E0E0680321FFF7AEFF064639
:104CF0004BE0E0680821FFF7A8FF064645E0E068C2
:104D00001021FFF7A2FF06463FE020690321FFF7CD
:104D10009CFF064639E020690821FFF796FF06460A
:104D200033E020691021FFF790FF06462DE0606810
:104D30000821FFF78AFF064627E060681021FFF789
:104D400084FF064621E0A0690121FFF77EFF0646A9
:104D50001BE01BE0A0690221FFF777FF064614E085
:104D6000A0690421FFF771FF06460EE00BE0A06981
:104D70007021FFF76AFF064607E060680421FFF72D
:104D800064FF064601E0002600BF00E00026304632
:104D900070BDB1F5007F3AD00FDC202928D006DCA9
:104DA00001291CD004291DD0082940D11DE040292B
:104DB00021D0B1F5807F3AD126E0B1F5004F31D056
:104DC00006DCB1F5806F25D0B1F5006F2FD124E05E
:104DD000B1F5803F12D0B1F5003F28D111E0154A5E
:104DE000826025E00822C26022E01022C2601FE03B
:104DF000082202611CE01022026119E008224260D0
:104E000016E01022426013E00422426010E0042207
:104E100042600DE0042242600AE000228261042226
:104E2000426005E0002282610422426000E000BF8F
:104E300000BF70470101010010B50446FE488442DE
:104E400008D10121C014FEF70FFF0021E014FEF786
:104E50000BFFC4E0B4F1804F08D101210846FEF7F2
:104E600010FF00210120FEF70CFFB8E0F348844258
:104E700008D101210220FEF704FF00210220FEF7E5
:104E800000FFACE0EE48844208D101210420FEF787
:104E9000F8FE00210420FEF7F4FEA0E0E948844279
:104EA00008D101210820FEF7ECFE00210820FEF7C2
:104EB000E8FE94E0E448844208D101211020FEF786
:104EC000E0FE00211020FEF7DCFE88E0DF4884428F
:104ED00008D101212020FEF7D4FE00212020FEF77A
:104EE000D0FE7CE0DA48844208D101214014FEF76C
:104EF000BBFE00216014FEF7B7FE70E0D548844287
:104F000009D10121C804FEF7AFFE00214FF40020B3
:104F1000FEF7AAFE63E0D048844209D101210805CA
:104F2000FEF7A2FE00214FF48010FEF79DFE56E032
:104F3000CA48844209D101214805FEF795FE0021A7
:104F40004FF40010FEF790FE49E0C548844208D1B6
:104F500001214020FEF795FE00214020FEF791FE42
:104F60003DE0C048844208D101218020FEF789FE3F
:104F700000218020FEF785FE31E0BB48844208D145
:104F800001218015FEF77DFE0021A015FEF779FEB8
:104F900025E0B648844209D101210804FEF764FEE9
:104FA00000214FF48030FEF75FFE18E0B0488442E5
:104FB00009D101214804FEF757FE00214FF40030CB
:104FC000FEF752FE0BE0AB48844208D10121880471
:104FD000FEF74AFE00214FF48020FEF745FE10BD8B
:104FE00000220288944B98420ED0994B98420BD0E5
:104FF000B0F1804F08D0914B984205D0904B984229
:1050000002D0904B984204D14FF68F731A404B88D0
:105010001A438D4B984207D08C4B984204D04FF6E0
:10502000FF431A40CB881A4302808B8883850B8804
:105030000385814B98420BD0854B984208D08B4B0F
:10504000984205D08A4B984202D08A4B984201D1AF
:105050000B7A038601238382704770B500240022F7
:105060000023058C4FF6FE7635400584028C83883C
:10507000048B4FF68F752C40B51E2C400D882C43A9
:10508000751E2A400D892A434D882A436A4DA8423D
:105090000BD06F4DA84208D0744DA84205D0744D76
:1050A000A84202D0734DA84213D14FF6F7752A409B
:1050B0004D892A434FF6FB752A408D882A434FF6C7
:1050C000FF652B404FF6FF552B408D892B43CD8933
:1050D0002B4383800483CD888586028470BD70B5A0
:1050E000002400220023058C4FF6EF76354005841E
:1050F000028C8388048B48F6FF752C404FF6FF45E1
:105100002C400D884FF6FF7606EA05252C434FF616
:10511000DF752A400D8906EA05152A434D8806EAFF
:1051200005152A43444DA84202D0494DA8421DD13D
:105130004FF67F752A404D894FF6FF7606EA051532
:105140002A434FF6BF752A408D8806EA05152A4383
:105150004FF6FF352B404FF2FF752B408D8906EA45
:1051600085052B43CD8906EA85052B43838004837F
:10517000CD880587028470BD70B50024002200230D
:10518000058C4FF6FF6635400584028C8388848B3E
:105190004FF68F752C404FF6FC752C400D882C4334
:1051A0004FF6FF552A400D894FF6FF7606EA052592
:1051B0002A434D8806EA05252A431F4DA84202D0FE
:1051C000234DA8421DD14FF2FF752A404D894FF65D
:1051D000FF7606EA05252A434FF6FF352A408D88DB
:1051E00006EA05252A434EF6FF752B404DF6FF755E
:1051F0002B408D8906EA05152B43CD8906EA051556
:105200002B4383808483CD888587028470BD70B5ED
:10521000002200230024058C4EF6FF7635400584DD
:10522000038C8488828B48F6FF752A404FF6FF4531
:105230002A400D8820E00000002C014000040040BE
:1052400000080040000C0040001000400014004026
:1052500000340140004C0140005001400054014026
:1052600000180040001C00400020004000400140A9
:1052700000440140004801404FF6FF7606EA05254C
:105280002A434DF6FF752B400D8906EA05352B4361
:105290004D8806EA05352B43FA4DA84202D0FA4D57
:1052A000A84208D14BF6FF752C408D894FF6FF764A
:1052B00006EA85152C4384808283CD88A0F840506F
:1052C000038470BD828B4FF2FF331A408283828B3E
:1052D0004FF6FF7303EA01231A4382837047F0B548
:1052E0000C461546002200210026078C4EF6FF7C56
:1052F00007EA0C070784828B018C4FF6FF7707EAD9
:10530000043640F6FF473A404FF6FF7707EA052795
:105310003A434FF6FF7707EA03373A43D94FB8428B
:105320000ED0D94FB8420BD0B0F1804F08D0D74F34
:10533000B84205D0D64FB84202D0D64FB84206D1B7
:105340004DF6FF77394046F48057394305E047F67C
:10535000FF57394044F48057394382830184F0BDBC
:10536000828B4FF6F3731A408283828B0A438283C7
:105370007047F0B50C461546002200210026078C28
:105380004FF6FF6C07EA0C070784828B018C4FF6FF
:10539000FF7707EA04264FF60C773A404FF6FF777F
:1053A00007EA03172F433A43B64FB8420ED0B64F21
:1053B000B8420BD0B0F1804F08D0B44FB84205D0FE
:1053C000B34FB84202D0B34FB84206D14FF6FF57A1
:1053D000394046F48077394305E04FF2FF573940B2
:1053E00044F48077394382830184F0BD028B4FF20D
:1053F000FF331A400283028B4FF6FF7303EA012347
:105400001A4302837047F0B50C461546002200216E
:105410000026078C4FF6EF7C07EA0C070784028B07
:10542000018C4FF6FF7707EA041640F6FF473A4033
:105430004FF6FF7707EA03373A434FF6FF7707EA5D
:1054400005273A438F4FB8420ED08F4FB8420BD04A
:10545000B0F1804F08D08D4FB84205D08C4FB84284
:1054600002D08C4FB84206D14FF6DF77394046F074
:105470001007394305E04FF65F77394044F01007D5
:10548000394302830184F0BD028B4FF6F3731A4057
:105490000283028B0A4302837047F0B50C4615461F
:1054A00000220021068C4FF6FE773E400684028BD8
:1054B000018C4FF60C7632407E1C06EA03162E4312
:1054C0003243704EB0420ED06F4EB0420BD0B0F1AE
:1054D000804F08D06D4EB04205D06D4EB04202D024
:1054E0006C4EB04206D14FF6FD76314044F00106D5
:1054F000314305E04FF6F576314044F00106314383
:1055000002830184F0BD70B505460C465D488542B6
:105510000ED05D4885420BD0B5F1804F08D05B4876
:10552000854205D05A48854202D05A48854200D16A
:1055300000E000BF208850B92389A28861882846EE
:10554000FFF7ABFFE1882846FFF79EFF25E02088A4
:1055500004280AD12389A28861882846FFF753FFCF
:10556000E1882846FFF742FF17E0208808280AD183
:105570002389A28861882846FFF7FBFEE188284638
:10558000FFF7EEFE09E02389A28861882846FFF72D
:10559000A6FEE1882846FFF795FE70BD2DE9F04193
:1055A00005460C4600260127608808B9022600E05F
:1055B0000026A088012801D1022700E001272088C9
:1055C000A0B92389A28861882846FFF766FFE18891
:1055D0002846FFF759FF23893A4631462846FFF708
:1055E00012FFE1882846FFF701FF13E02389A28814
:1055F00061882846FFF707FFE1882846FFF7F6FE97
:1056000023893A4631462846FFF747FFE188284676
:10561000FFF73AFFBDE8F0810A884B881A438B8870
:105620001A43CB881A430B891A434B891A438B8937
:105630001A43A0F8442070474FF6FF718180002183
:105640000180C1804180017270470021018041804A
:105650008180C180018141818181C18170470021A8
:1056600001804180012181800021C180018170473A
:105670000021018041808180C1800181418181813F
:1056800070470000002C014000340140000400403D
:1056900000080040000C004021B1028842F00102E5
:1056A000028004E002884FF6FE731A4002807047C1
:1056B00031B1B0F8442042F40042A0F8442005E0A3
:1056C000B0F84420C2F30E02A0F8442070471AB18B
:1056D00083890B43838102E083898B4383817047F5
:1056E0008182704741EA0203A0F8483070471AB13E
:1056F00083890B43838102E083898B4383817047D5
:1057000001894FF6F8721140018170470A46002165
:1057100001894FF68F73194011430181704730B5ED
:1057200004460D4629462046FFF7F0FF208940F049
:105730000700208130BD2DE9F04104460D46164694
:105740001F46602D06D13B46012231462046FFF719
:105750005AFE05E03B46012231462046FFF79DFEFA
:1057600029462046FFF7D2FF208940F0070020811C
:10577000BDE8F08130B50C4600210189C9B24FF671
:10578000FF7505EA0325154325432943018130BDF3
:105790002DE9F04105460E4617469846002443463B
:1057A0003A4631462846FFF7E5FF2C894FF6F87058
:1057B000044044F007044FF68F70044044F0700436
:1057C0002C81BDE8F081F0B504460D4616461F4613
:1057D0003B46324629462046FFF7CCFF208940F45D
:1057E00080402081F0BD0185828270470A460021F9
:1057F00001884FF68F731940114301807047F0B54F
:105800000C4615461E460021002200230189028B0A
:10581000038C4FF6F877394021434FF6FC473A4066
:1058200040F201173A434FF6DD773B404FF6FF77E2
:1058300007EA06172F433B43018102830384F0BD2F
:105840000A460021018B4FF68F73194011430183E3
:1058500070470A460021018B48F6FF7319404FF646
:10586000FF7303EA02231943018370470A460021AC
:10587000818B4FF68F7319401143818370470A461D
:105880000021818B48F6FF7319404FF6FF7303EA3E
:10589000022319438183704721B1028842F08002BC
:1058A000028004E002884FF67F731A40028070473E
:1058B00021B1828842F00402828004E082884FF69F
:1058C000FB731A408280704721B1828842F008023F
:1058D000828004E082884FF6F7731A408280704716
:1058E00021B1828842F00102828004E082884FF672
:1058F000FE731A40828070470A460021018B4FF6E2
:10590000F77319401143018370470A460021018B48
:105910004FF2FF7319404FF6FF7303EA0223194356
:10592000018370470A460021818B4FF6F7731940B7
:105930001143818370470A460021818B4FF2FF7328
:1059400019404FF6FF7303EA02231943818370471E
:105950000A460021018B4FF6FB7319401143018366
:1059600070470A460021018B4FF6FF3319404FF66E
:10597000FF7303EA02231943018370470A4600219B
:10598000818B4FF6FB7319401143818370470A46A0
:105990000021818B4FF6FF3319404FF6FF7303EA66
:1059A00002231943818370470A460021018B4FF679
:1059B0007F7319401143018370470A460021018B10
:1059C000C1F30E014FF6FF7303EA0223194301836B
:1059D00070470A460021818B4FF67F7319401143AF
:1059E000818370470A460021818BC1F30E014FF677
:1059F000FF7303EA02231943818370470A4600219B
:105A0000018C4FF6FD7319401143018470470A461B
:105A10000021018C4FF6F773194011430184704740
:105A20000A460021018C4FF6DF7319404FF6FF73D1
:105A300003EA02131943018470470A460021018CCE
:105A40004FF67F7319404FF6FF7303EA02131943B1
:105A5000018470470A460021018C4FF6FF5319401C
:105A60004FF6FF7303EA02231943018470470A4685
:105A70000021018C4FF2FF7319404FF6FF7303EAC8
:105A800002231943018470470A460021018C4DF618
:105A9000FF7319404FF6FF7303EA02331943018481
:105AA000704730B5002301248C40A3B2048C9C4382
:105AB0000484048C02FA01F5ADB22C43048430BD99
:105AC00030B5002304248C40A3B2048C9C4304848E
:105AD000048C02FA01F5ADB22C43048430BD70B5DC
